:100000000C94ED0D0C94660E0C94660E0C94660E1A
:100010000C94660E0C94660E0C94660E0C94660E90
:100020000C94660E0C94660E0C94660E0C94660E80
:100030000C94660E0C94C10E0C94000F0C94660E7A
:100040000C94660E0C94660E0C94660E0C94660E60
:100050000C94660E0C94660E0C94660E0C94660E50
:100060000C94660E0C94660E0C94660E0C94660E40
:100070005A5501200101003808000000000000006E
:100080000000000000000000000000000000000070
:10009000810045005DFF5E1027FF2AD22B7D210CD9
:1000A00022FB850084008903888D81096F02444208
:1000B00047004501B083B300B10124B925578A1D1B
:1000C0008B038D11901198119C11A311AB11B011DC
:1000D000B511B811C811CB11CE1109120C120F12A3
:1000E00000408891D2E4ADB5B6BEBFFF000000006D
:1000F0000000000000000000000000000000000000
:1001000000000000000000000000000000000000EF
:1001100000000000000000000000000000000000DF
:1001200000000000000000000000000000000000CF
:1001300000000000000000000000000000000000BF
:100140000000FF0000000000FF0000000000FF00B2
:1001500000000000FF0000000000FF0000000000A1
:10016000000000000000FF00000000000000000090
:10017000000000000000000000000000000000007F
:10018000000000FF00FF000000FF00FF000000FF74
:1001900000FF000000000000000000000000000060
:1001A000000000000000000000000000000000004F
:1001B000000000000000000000000000000000003F
:1001C000000000000000000000000000000000002F
:1001D00000000000000000FF00FF0000FFFFFFFF25
:1001E000FF0000FF00FF000000FF00FF0000FFFF16
:1001F000FFFFFF0000FF00FF000000000000000004
:1002000000000000000000000000000000000000EE
:1002100000000000FF00000000FFFFFF0000FF00E3
:10022000FF00FF00FF00FF00000000FFFFFF0000D5
:100230000000FF00FF00FF00FF00FF0000FFFFFFC6
:1002400000000000FF0000000000000000000000AF
:10025000000000000000000000000000000000009E
:10026000FFFF0000FF00FFFF0000FF00000000FF95
:1002700000000000FF00000000FF00000000FF0081
:1002800000FFFF00FF0000FFFF0000000000000073
:10029000000000000000000000000000000000005E
:1002A000000000000000000000FF00000000FF0050
:1002B000FF000000FF00FF00000000FF0000000042
:1002C000FF00FF00FF00FF0000FF000000FFFF0035
:1002D000FF0000000000000000000000000000001F
:1002E000000000000000000000000000FF0000000F
:1002F0000000FF0000000000FF0000000000000000
:1003000000000000000000000000000000000000ED
:1003100000000000000000000000000000000000DD
:1003200000000000000000000000000000000000CD
:100330000000000000FF00000000FF0000000000BF
:10034000FF00000000FF0000000000FF00000000B0
:1003500000FF000000000000FF0000000000FF00A0
:100360000000000000FF000000000000000000008E
:100370000000000000000000000000FF000000007E
:100380000000FF0000000000FF000000000000FF70
:100390000000000000FF0000000000FF000000005F
:1003A000FF0000000000FF00000000FF0000000050
:1003B000000000000000000000000000000000003D
:1003C00000000000000000000000FF000000FF002F
:1003D000FF00FF0000FFFFFF00000000FF00000023
:1003E00000FFFFFF0000FF00FF00FF000000FF0014
:1003F00000000000000000000000000000000000FD
:1004000000000000000000000000000000000000EC
:100410000000000000000000FF0000000000FF00DE
:100420000000FFFFFFFFFF000000FF0000000000D2
:10043000FF000000000000000000000000000000BD
:1004400000000000000000000000000000000000AC
:10045000000000000000000000000000000000009C
:10046000000000000000000000000000000000008C
:1004700000000000000000FFFF00000000FFFF0080
:100480000000FFFF0000000000000000000000006E
:10049000000000000000000000000000000000005C
:1004A000000000000000000000000000000000004C
:1004B0000000FFFFFFFFFF00000000000000000041
:1004C000000000000000000000000000000000002C
:1004D000000000000000000000000000000000001C
:1004E000000000000000000000000000000000000C
:1004F00000000000000000000000000000000000FC
:1005000000000000000000FFFF00000000FFFF00EF
:1005100000000000000000000000000000000000DB
:1005200000000000000000000000000000000000CB
:1005300000000000FF00000000FF0000000000FFBE
:1005400000000000FF00000000FF0000000000FFAE
:1005500000000000FF00000000000000000000009C
:10056000000000000000000000000000000000008B
:1005700000000000000000000000FFFF000000FF7E
:100580000000FF0000FF0000FF0000FF0000FF0070
:1005900000FF0000FF0000FF0000FF000000FFFF61
:1005A000000000000000000000000000000000004B
:1005B000000000000000000000000000000000003B
:1005C0000000FF00000000FFFF0000000000FF002F
:1005D00000000000FF0000000000FF00000000001D
:1005E000FF00000000FFFFFF00000000000000000F
:1005F00000000000000000000000000000000000FB
:10060000000000000000000000FFFFFF0000FF00EE
:100610000000FF0000000000FF00000000FF0000DD
:100620000000FF00000000FF00000000FFFFFFFFD0
:10063000FF000000000000000000000000000000BB
:1006400000000000000000000000000000000000AA
:10065000FFFFFFFFFF0000000000FF00000000FFA1
:1006600000000000FFFF000000000000FF00FF008E
:100670000000FF0000FFFFFF00000000000000007E
:10068000000000000000000000000000000000006A
:100690000000000000000000000000FF000000005B
:1006A000FFFF000000FF00FF0000FF0000FF000050
:1006B000FFFFFFFFFF00000000FF0000000000FF41
:1006C000000000000000000000000000000000002A
:1006D000000000000000000000000000000000001A
:1006E000FFFFFFFFFF00FF0000000000FFFFFFFF14
:1006F000000000000000FF0000000000FF00FF00FD
:100700000000FF0000FFFFFF0000000000000000ED
:1007100000000000000000000000000000000000D9
:1007200000000000000000000000FFFF000000FFCC
:1007300000000000FF0000000000FFFFFFFF0000BE
:10074000FF000000FF00FF000000FF0000FFFFFFB0
:100750000000000000000000000000000000000099
:100760000000000000000000000000000000000089
:10077000FFFFFFFFFF0000000000FF00000000FF80
:100780000000000000FF00000000FF00000000006B
:10079000FF0000000000FF0000000000000000005B
:1007A0000000000000000000000000000000000049
:1007B000000000000000000000FFFFFF0000FF003D
:1007C0000000FF00FF000000FF0000FFFFFF00002F
:1007D000FF000000FF00FF000000FF0000FFFFFF20
:1007E0000000000000000000000000000000000009
:1007F00000000000000000000000000000000000F9
:1008000000FFFFFF0000FF000000FF00FF000000EE
:10081000FF0000FFFFFFFF0000000000FF000000DE
:1008200000FF000000FFFF000000000000000000CB
:1008300000000000000000000000000000000000B8
:1008400000000000000000000000000000000000A8
:100850000000000000FFFF00000000FFFF0000009C
:1008600000000000000000FFFF00000000FFFF008C
:100870000000000000000000000000000000000078
:100880000000000000000000000000000000000068
:1008900000000000000000000000000000FFFF005A
:1008A000000000FFFF00000000000000000000FF4B
:1008B000FF00000000FFFF000000FFFF000000003D
:1008C0000000000000000000000000000000000028
:1008D0000000000000000000000000000000000018
:1008E00000FF00000000FF00000000FF000000000B
:1008F0000000FF000000000000FF000000000000FA
:1009000000000000000000000000000000000000E7
:1009100000000000000000000000000000000000D7
:10092000000000000000000000000000FFFFFFFFCB
:10093000FF00000000000000FFFFFFFFFF000000BD
:1009400000000000000000000000000000000000A7
:100950000000000000000000000000000000000097
:10096000000000000000000000000000000000FF88
:10097000000000000000FF000000000000FF000079
:100980000000FF00000000FF000000000000000069
:100990000000000000000000000000000000000057
:1009A0000000000000000000000000000000000047
:1009B00000FFFFFF0000FF000000FF00000000FF3D
:1009C00000000000FF0000000000FF000000000029
:1009D000000000000000FF00000000000000000018
:1009E0000000000000000000000000000000000007
:1009F000000000000000000000FFFFFF0000FF00FB
:100A00000000FF00FF00FFFFFF00FF00FF00FF00EE
:100A1000FF00FFFFFF00FF000000000000FFFFFFDE
:100A200000000000000000000000000000000000C6
:100A300000000000000000000000000000000000B6
:100A400000FFFFFF0000FF000000FF00FF000000AC
:100A5000FF00FFFFFFFFFF00FF000000FF00FF009F
:100A60000000FF00FF000000FF0000000000000089
:100A70000000000000000000000000000000000076
:100A80000000000000000000FFFFFFFF000000FF6B
:100A90000000FF0000FF0000FF0000FFFFFF00005C
:100AA00000FF0000FF0000FF0000FF00FFFFFFFF4E
:100AB0000000000000000000000000000000000036
:100AC0000000000000000000000000000000000026
:100AD00000FFFFFF0000FF000000FF00FF0000001C
:100AE0000000FF0000000000FF0000000000FF0009
:100AF0000000FF0000FFFFFF0000000000000000FA
:100B000000000000000000000000000000000000E5
:100B10000000000000000000FFFFFFFF000000FFDA
:100B20000000FF0000FF0000FF0000FF0000FF00CA
:100B300000FF0000FF0000FF0000FF00FFFFFFFFBD
:100B400000000000000000000000000000000000A5
:100B50000000000000000000000000000000000095
:100B6000FFFFFFFFFF00FF0000000000FF0000008C
:100B70000000FFFFFFFF0000FF0000000000FF007B
:100B800000000000FFFFFFFFFF000000000000006A
:100B90000000000000000000000000000000000055
:100BA0000000000000000000FFFFFFFFFF00FF004B
:100BB00000000000FF0000000000FFFFFFFF00003A
:100BC000FF0000000000FF0000000000FF00000028
:100BD0000000000000000000000000000000000015
:100BE0000000000000000000000000000000000005
:100BF00000FFFFFF0000FF000000FF00FF000000FB
:100C00000000FF0000000000FF0000FFFF00FF00E9
:100C10000000FF0000FFFFFF0000000000000000D8
:100C200000000000000000000000000000000000C4
:100C30000000000000000000FF000000FF00FF00B7
:100C40000000FF00FF000000FF00FFFFFFFFFF00AC
:100C5000FF000000FF00FF000000FF00FF00000099
:100C6000FF00000000000000000000000000000085
:100C70000000000000000000000000000000000074
:100C800000FFFFFF00000000FF0000000000FF0069
:100C900000000000FF0000000000FF000000000056
:100CA000FF00000000FFFFFF000000000000000048
:100CB0000000000000000000000000000000000034
:100CC00000000000000000000000FFFFFF00000027
:100CD00000FF0000000000FF0000000000FF000017
:100CE000000000FF0000FF0000FF000000FFFF0009
:100CF00000000000000000000000000000000000F4
:100D000000000000000000000000000000000000E3
:100D1000FF000000FF00FF0000FF0000FF00FF00D9
:100D20000000FFFF00000000FF00FF000000FF00C8
:100D300000FF0000FF000000FF00000000000000B6
:100D400000000000000000000000000000000000A3
:100D50000000000000000000FF0000000000FF0095
:100D600000000000FF0000000000FF000000000085
:100D7000FF0000000000FF0000000000FFFFFFFF79
:100D8000FF00000000000000000000000000000064
:100D90000000000000000000000000000000000053
:100DA000FF000000FF00FFFF00FFFF00FF00FF004B
:100DB000FF00FF000000FF00FF000000FF00FF0039
:100DC0000000FF00FF000000FF0000000000000026
:100DD0000000000000000000000000000000000013
:100DE0000000000000000000FF000000FF00FF0006
:100DF0000000FF00FFFF0000FF00FF00FF00FF00FA
:100E0000FF0000FFFF00FF000000FF00FF000000E8
:100E1000FF000000000000000000000000000000D3
:100E200000000000000000000000000000000000C2
:100E300000FFFFFF0000FF000000FF00FF000000B8
:100E4000FF00FF000000FF00FF000000FF00FF00A8
:100E50000000FF0000FFFFFF000000000000000096
:100E60000000000000000000000000000000000082
:100E70000000000000000000FFFFFFFF0000FF0077
:100E80000000FF00FF000000FF00FFFFFFFF000069
:100E9000FF0000000000FF0000000000FF00000055
:100EA0000000000000000000000000000000000042
:100EB0000000000000000000000000000000000032
:100EC00000FFFFFF0000FF000000FF00FF00000028
:100ED000FF00FF000000FF00FF00FF00FF00FF0019
:100EE00000FF000000FFFF00FF0000000000000006
:100EF00000000000000000000000000000000000F2
:100F00000000000000000000FFFFFFFF0000FF00E6
:100F10000000FF00FF000000FF00FFFFFFFF0000D8
:100F2000FF00FF000000FF0000FF0000FF000000C6
:100F3000FF000000000000000000000000000000B2
:100F400000000000000000000000000000000000A1
:100F500000FFFFFF0000FF000000FF00FF00000097
:100F6000000000FFFFFF000000000000FF00FF0086
:100F70000000FF0000FFFFFF000000000000000075
:100F80000000000000000000000000000000000061
:100F90000000000000000000FFFFFFFFFF00000056
:100FA000FF0000000000FF0000000000FF00000044
:100FB0000000FF0000000000FF0000000000FF0034
:100FC0000000000000000000000000000000000021
:100FD0000000000000000000000000000000000011
:100FE000FF000000FF00FF000000FF00FF00000006
:100FF000FF00FF000000FF00FF000000FF00FF00F7
:101000000000FF0000FFFFFF0000000000000000E4
:1010100000000000000000000000000000000000D0
:101020000000000000000000FF000000FF00FF00C3
:101030000000FF00FF000000FF00FF000000FF00B5
:1010400000FF00FF000000FF00FF00000000FF00A5
:101050000000000000000000000000000000000090
:101060000000000000000000000000000000000080
:10107000FF000000FF00FF000000FF00FF00000075
:10108000FF00FF000000FF00FF00FF00FF00FF0067
:10109000FF00FF0000FF00FF000000000000000054
:1010A0000000000000000000000000000000000040
:1010B0000000000000000000FF000000FF00FF0033
:1010C0000000FF0000FF00FF00000000FF00000024
:1010D00000FF00FF0000FF000000FF00FF00000015
:1010E000FF00000000000000000000000000000001
:1010F00000000000000000000000000000000000F0
:10110000FF000000FF00FF000000FF0000FF00FFE5
:1011100000000000FF0000000000FF0000000000D1
:10112000FF0000000000FF000000000000000000C1
:1011300000000000000000000000000000000000AF
:101140000000000000000000FFFFFFFFFF000000A4
:101150000000FF00000000FF00000000FF00000092
:1011600000FF00000000FF0000000000FFFFFFFF85
:10117000FF00000000000000000000000000000070
:101180000000000000000000000000FFFFFF000062
:1011900000FF0000000000FF0000000000FF000052
:1011A000000000FF0000000000FF0000000000FF42
:1011B0000000000000FF0000000000FFFFFF000033
:1011C000000000000000000000000000000000001F
:1011D0000000000000000000FF000000000000FF11
:1011E0000000000000FF000000000000FF00000001
:1011F000000000FF0000000000FF000000000000F1
:10120000FF000000000000000000000000000000DF
:101210000000000000000000000000FFFFFF0000D1
:10122000000000FF0000000000FF0000000000FFC1
:101230000000000000FF0000000000FF00000000B0
:1012400000FF0000000000FF000000FFFFFF0000A3
:10125000000000000000000000000000000000008E
:1012600000000000FF00000000FF00FF0000FF0082
:101270000000FF000000000000000000000000006F
:10128000000000000000000000000000000000005E
:10129000000000000000000000000000000000004E
:1012A000000000000000000000000000000000003E
:1012B000000000000000000000000000000000002E
:1012C000000000000000000000000000000000001E
:1012D000000000000000000000000000000000000E
:1012E000FFFFFFFFFF000000000000000000000003
:1012F000000000FF000000000000FF0000000000F0
:1013000000FF0000000000000000000000000000DE
:1013100000000000000000000000000000000000CD
:1013200000000000000000000000000000000000BD
:1013300000000000000000000000000000000000AD
:1013400000000000000000000000000000FFFFFFA0
:10135000000000000000FF0000FFFFFFFF00FF0093
:101360000000FF0000FFFFFFFF0000000000000082
:10137000000000000000000000000000000000006D
:101380000000000000000000FF0000000000FF005F
:1013900000000000FFFFFFFF0000FF000000FF0053
:1013A000FF000000FF00FF000000FF00FFFFFFFF45
:1013B000000000000000000000000000000000002D
:1013C000000000000000000000000000000000001D
:1013D00000000000000000000000000000FFFFFF10
:1013E0000000FF000000FF00FF0000000000FF0001
:1013F0000000FF0000FFFFFF0000000000000000F1
:1014000000000000000000000000000000000000DC
:10141000000000000000000000000000FF000000CD
:101420000000FF0000FFFFFFFF00FF000000FF00C3
:10143000FF000000FF00FF000000FF0000FFFFFFB3
:10144000FF0000000000000000000000000000009D
:10145000000000000000000000000000000000008C
:1014600000000000000000000000000000FFFFFF7F
:101470000000FF000000FF00FFFFFFFF0000FF0073
:101480000000000000FFFFFF00000000000000005F
:10149000000000000000000000000000000000004C
:1014A00000000000000000000000FFFF000000FF3F
:1014B0000000FF0000FF00000000FFFFFF00000031
:1014C00000FF0000000000FF0000000000FF00001F
:1014D000000000000000000000000000000000000C
:1014E00000000000000000000000000000000000FC
:1014F00000000000000000000000000000FFFFFFEF
:101500000000FF000000FF00FF000000FF00FF00E0
:101510000000FF0000FFFFFFFF0000000000FF00D1
:1015200000FFFFFF000000000000000000000000BE
:101530000000000000000000FF0000000000FF00AD
:1015400000000000FFFFFFFF0000FF000000FF00A1
:10155000FF000000FF00FF000000FF00FF00000090
:10156000FF0000000000000000000000000000007C
:10157000000000000000000000000000000000006B
:101580000000FF00000000000000000000FFFF005E
:1015900000000000FF0000000000FF00000000004D
:1015A000FF00000000FFFFFF00000000000000003F
:1015B000000000000000000000000000000000002B
:1015C000000000000000000000000000FF0000001C
:1015D00000000000000000FFFF0000000000FF000E
:1015E00000000000FF0000000000FF0000000000FD
:1015F000FF0000FF0000FF000000FFFF00000000F0
:1016000000000000000000000000000000000000DA
:10161000FF0000000000FF0000000000FF000000CD
:10162000FF00FF0000FF0000FFFFFF000000FF00C1
:1016300000FF0000FF000000FF00000000000000AD
:10164000000000000000000000000000000000009A
:10165000000000000000000000FFFF00000000008C
:10166000FF0000000000FF0000000000FF0000007D
:101670000000FF0000000000FF00000000FFFFFF6F
:10168000000000000000000000000000000000005A
:10169000000000000000000000000000000000004A
:1016A000000000000000000000000000FFFF00FF3D
:1016B0000000FF00FF00FF00FF00FF00FF00FF0031
:1016C000FF00FF00FF00FF00FF000000000000001F
:1016D000000000000000000000000000000000000A
:1016E00000000000000000000000000000000000FA
:1016F00000000000FF00FFFF0000FFFF0000FF00F0
:10170000FF000000FF00FF000000FF00FF000000DE
:10171000FF000000000000000000000000000000CA
:1017200000000000000000000000000000000000B9
:1017300000000000000000000000000000FFFFFFAC
:101740000000FF000000FF00FF000000FF00FF009E
:101750000000FF0000FFFFFF00000000000000008D
:101760000000000000000000000000000000000079
:101770000000000000000000000000000000000069
:1017800000000000FFFFFFFF0000FF000000FF005F
:10179000FF000000FF00FF000000FF00FFFFFFFF51
:1017A0000000FF0000000000FF000000000000003B
:1017B0000000000000000000000000000000000029
:1017C00000000000000000000000000000FFFFFF1C
:1017D000FF00FF000000FF00FF000000FF00FF000F
:1017E0000000FF0000FFFFFFFF0000000000FF00FF
:1017F00000000000FF0000000000000000000000EA
:1018000000000000000000000000000000000000D8
:1018100000000000FF00FFFF0000FFFF0000FF00CE
:10182000FF0000000000FF0000000000FF000000BB
:1018300000000000000000000000000000000000A8
:101840000000000000000000000000000000000098
:1018500000000000000000000000000000FFFFFF8B
:10186000FF00FF000000000000FFFFFF000000007D
:101870000000FF00FFFFFFFF00000000000000006D
:101880000000000000000000000000000000000058
:1018900000000000000000000000FF000000000049
:1018A000FF000000FFFFFFFFFF000000FF0000003F
:1018B0000000FF0000000000FF000000000000FF2B
:1018C000FF00000000000000000000000000000019
:1018D0000000000000000000000000000000000008
:1018E000000000000000000000000000FF000000F9
:1018F000FF00FF000000FF00FF000000FF00FF00EE
:1019000000FFFF0000FFFF00FF00000000000000DC
:1019100000000000000000000000000000000000C7
:1019200000000000000000000000000000000000B7
:1019300000000000FF000000FF00FF000000FF00AB
:10194000FF000000FF0000FF00FF00000000FF009C
:101950000000000000000000000000000000000087
:101960000000000000000000000000000000000077
:10197000000000000000000000000000FF00000068
:10198000FF00FF000000FF00FF00FF00FF00FF005E
:10199000FF00FF0000FF00FF00000000000000004B
:1019A0000000000000000000000000000000000037
:1019B0000000000000000000000000000000000027
:1019C00000000000FF000000FF0000FF00FF00001B
:1019D0000000FF00000000FF00FF0000FF0000000B
:1019E000FF000000000000000000000000000000F8
:1019F00000000000000000000000000000000000E7
:101A0000000000000000000000000000FF000000D7
:101A1000FF00FF000000FF00FF000000FF0000FFCC
:101A200000FF00000000FF00000000FF00000000B9
:101A3000FF000000000000000000000000000000A7
:101A40000000000000000000000000000000000096
:101A500000000000FFFFFFFFFF00000000FF00008C
:101A60000000FF00000000FF00000000FFFFFFFF7C
:101A7000FF00000000000000000000000000000067
:101A800000000000000000000000000000FF000057
:101A90000000FF0000000000FF0000000000FF0049
:101AA000000000FF000000000000FF000000000038
:101AB000FF0000000000FF000000000000FF000029
:101AC0000000000000000000000000000000000016
:101AD00000000000FF0000000000FF000000000008
:101AE000FF0000000000FF0000000000FF000000F9
:101AF0000000FF0000000000FF0000000000FF00E9
:101B000000000000FF0000000000000000000000D6
:101B10000000000000000000000000FF00000000C6
:101B20000000FF0000000000FF0000000000FF00B8
:101B30000000000000FF00000000FF0000000000A7
:101B4000FF0000000000FF00000000FF0000000098
:101B50000000000000000000000000000000000085
:101B60000000000000000000000000000000000075
:101B70000000000000FF0000FF00FF00FF00FF006A
:101B8000FF0000FF00000000000000000000000057
:101B90000000000000000000000000000000000045
:101BA0000000000053636F7265004865616C7468E3
:101BB000004869742062792053746F726D74726F7B
:101BC0006F7065720046727569747300594F5520C5
:101BD0004C4F535420484148410011241FBECFEFC1
:101BE000D0E1DEBFCDBF11E0A0E0B1E0E8E0F1E47C
:101BF00002C005900D92AC31B107D9F729E0ACE1F4
:101C0000B1E001C01D92A83CB207E1F714BE0FB6C7
:101C1000F894A8958091600088618093600010928C
:101C200060000FBEF89480E990E042EC50E0FC01C7
:101C300025913491F901FF273083029648175907FF
:101C4000B1F70E947611811102C00E945411E9E09F
:101C5000F7E080E8819399E0E531F907D9F789E069
:101C600097E090931609809315091092170981E067
:101C700080932E0980932F0980932D0910921A09C1
:101C8000109220091092260910922C091092F40645
:101C90001092F60692E19093F50698ED9093FC066B
:101CA00094E19093FB06109200071092FF061092A9
:101CB000040710920307809319090E94811A7894EF
:101CC0000E94801A0E942B1B0C9482200C9400000E
:101CD00030E03A95F1F731EC3A95F1F7CCE1D1E00B
:101CE00008EDA02E662776E02DD13BE23A95F1F77C
:101CF0000E94A00E31E13A95F1F7AA9489F0C895B7
:101D000063956C3029F033E03A95F1F70000ECCFA1
:101D10006627002430E5C30FD01DC8950000E4CF2E
:101D200035E03A95F1F700C00DD1E091F60642E0BA
:101D3000E427E160E093F606E2E0E09336000895E0
:101D4000DE014D915D91679FC001480F591FFA0157
:101D500028E2059108B94D91059108B95D91059169
:101D600008B900C0059108B9480F591F059108B975
:101D70000591FA012A9508B961F7C895002708B9B5
:101D800008950F921F92EF93FF93FFB7E0918400A5
:101D9000FF93E2FD04C0E1FD02C0000000C0E0FFCF
:101DA00000C0E091F506EA95E093F506F091F4069F
:101DB000F0FD51C0EC3098F0F3E0F0938900FDE8BD
:101DC000F0938800E0FB289826F4E1E00E9483105D
:101DD000B2C0E5E1EA95F1F70000289AACC0E63020
:101DE00008F100C000C02898E0FBE4E016F40E946F
:101DF0008310E4E0E0933600E6E0E0936F009BC0E0
:101E0000EF93E0918400E2FD04C0E1FD02C0000018
:101E100000C0E0FF00C0E2E00000289AE0936F00FD
:101E2000EF91189500C0E0FB289826F4E1E00E94AD
:101E3000831005C0E5E1EA95F1F70000289AE091EA
:101E4000F506E03009F077C0EDEFE093F506E1E04C
:101E5000E093F40670C0E7E0E0938900EBE1E093E3
:101E6000880000C02898E2E000C00E948310FDEFC7
:101E70000090FB06F019E091F506EF17D8F4FDEF9E
:101E80000090FB06F0190090FC06F019EF1790F097
:101E9000EDE1FF2700800F92EA95E1F70FE10A9547
:101EA000F1F700C00E94680EE1E0FF270F90019259
:101EB000EE31E0F3E091F506E03009F03CC02F93FD
:101EC0003F934F935F936F937F938F939F93AF93C2
:101ED000BF9378941124EE27E093F406E2E1E093B7
:101EE000F5068091050790910607019680930507F6
:101EF00090930607E091F706F091F806E115F105D9
:101F000009F009950E9444110E94821A0E94AD0FA7
:101F10001124E091F906F091FA06E115F10509F0B6
:101F20000995BF91AF919F918F917F916F915F9133
:101F30004F913F912F91EF91EFBFFF91EF911F9044
:101F40000F9018952898E2E000C00E948310E0915D
:101F5000F506EA95E093F5060895E0911909E0FD8C
:101F60000E94391200901709002019F4A9E0B7E087
:101F700002C0AFE0B8E021E002260092170922E09B
:101F800020931809E0911909E0FF08952F923F92DC
:101F90004F925F926F927F928F929F92AF92BF9279
:101FA000CF92DF92EF92FF920F931F93CF93DF9325
:101FB00050912C0960912E0970912F098091300960
:101FC00020901B0930901C0940901E0950901F0959
:101FD00060901D0910911A097090210980902209C2
:101FE00090902309A0902409B09025092091200900
:101FF000C0902709D0902809E0902A09F0902B0979
:1020000000912909309126099FEF620C431CF201CF
:10201000449141030008C12DD02D970CA81CF50157
:10202000449142030008C10DD01D0C0DED1CF701B9
:10203000449143030008C10DD01D8A956AF4409174
:102040002D09842F8695062E0694062600FA76958D
:10205000679576F940FF66F940E860FD4FE7450374
:102060000008C10DD01D0024C038D0050CF0CFE70A
:102070000A94C038D0050CF4C0E8C058CD939A95A6
:1020800009F0C3CF409118094A954093180997E089
:1020900009F0BBCF60921D0940921E09909223095E
:1020A000A092240900932909E0922A0960932E093D
:1020B00070932F0980933009DF91CF911F910F9179
:1020C000FF90EF90DF90CF90BF90AF909F908F9058
:1020D0007F906F905F904F903F902F900895E09188
:1020E0001509F0911609019100000093B30009E071
:1020F000E531F00709E017E008F0F801E093150971
:10210000F093160908950F931F932F93EF93E09187
:102110001509F091160901910093B30009E0E5312A
:10212000F00709E017E008F0F801E0931509F093D3
:102130001609E8E0EA95F1F7EF912F911F910F91C1
:10214000E0FD289AE0FF01C00895F4E1FA95F1F767
:1021500000C0E1FD289AE1FF00C00895EAEEF2E038
:10216000ACE1B1E06091F0067091F1066D937D9362
:102170003197E1F7112408959927552728E2220F76
:10218000629F880F080E191EACE1B1E0A00DB11DD1
:102190006091F0067091F10628E4429F600D711D78
:1021A0006D937C93112408958093F0069093F1062B
:1021B00008958091F606817008952091F6062E7F8D
:1021C0002093F6060895882329F48091FD069091C6
:1021D000FE06089580910107909102070895E0E6B8
:1021E000F0E0808183FD089588E198E0F894808391
:1021F00090837894FFCFF999FECF92BD81BD60BDE9
:10220000F894FA9AF99A78940895F999FECF92BDC4
:1022100081BDF894F89A80B578940895129AC8957B
:10222000C895C895C895129840E180E090E020E0FC
:1022300030E03695279596958795C895C895C895A9
:10224000C8951398009B3068019B9068139AC895B5
:10225000C895C895C895415061F73093FE06209304
:10226000FD0690930207809301078091FD069091EF
:10227000FE060F9731F080910107909102070F97AA
:1022800011F40C94EF10089510925609009903C0B0
:1022900081E080935609019905C0809156098260BA
:1022A000809356090C940E11CF93DF93C0E0D0E0D9
:1022B000FE01E059FF4F6491CE010E94FB10219670
:1022C000C032D105A9F7C0E2D0E06FEFCE010E9485
:1022D000FB106FEFCE0101960E94FB10A096C11576
:1022E00088E0D80791F7DF91CF910895CF9380E0F0
:1022F00090E00E940511C82F81E090E00E94051136
:10230000282F30E0322F22272C0F311D81E02A3573
:10231000354509F080E0CF910895FC016787089565
:10232000EAE1F9E081E091E0958B848B638B08957D
:10233000FC0182810C94DD14FC019181690F6183A1
:1023400082810C94C614FC019181961B692F9183A4
:1023500082810C94C614FC0190819F75908308952E
:10236000FC019081906490830895FC016687089534
:102370001F93CF93DF93EC01162F8A810E94C6141E
:1023800019838881877F8883DF91CF911F9108957A
:10239000FC0162870895FC0163870895CF93DF9362
:1023A000EC01262F898190E0FC01EE0FFF1FEC501D
:1023B000F64D45915491FC01E60FF11D67FDFA952C
:1023C000EE0FFF1FEC50F64D85919491841B950BF9
:1023D000688570E00E94AF1F6115710511F461E01E
:1023E00070E0EA8186E0E89FF0011124E65EF64F96
:1023F00081819281860F971F928381837E836D8373
:102400008881886088838981280F2F83DF91CF910D
:102410000895FC0160870895FC0164830895DC0140
:1024200014968C911497882319F155962D913C910F
:102430005697662379F0062E000C770B6F5F7F4F5F
:10244000AB01440F551F640F751F261B370B09C0C6
:10245000EF3F39F023503109F9013297E491ED3023
:10246000B9F756963C932E935597815014968C93BA
:102470000895EF92FF920F931F93CF93DF93C9E5D7
:10248000D9E00AE119E09801DE011F968C911F97AF
:102490008823A9F01E964C911E97082E000C990BCC
:1024A000840F911D8F3F910519F014F08FEF90E08C
:1024B00097FF02C080E090E01E968C931E976C916F
:1024C00063FF26C015964D915C911697F9018181A5
:1024D0009281840F951F928381831796EC911797B1
:1024E000F0E0EE0FFF1FEC50F64DE590F49014165F
:1024F000150624F48E159F0530F40AC0452B41F0D3
:10250000E816F90628F0F901F282E182677F6C9300
:1025100057962A5F3F4FF9E0A53BBF0709F0B5CFBB
:1025200080910807882309F4CCC087E1F82E8091B8
:10253000B5099091B6092091BB093091BC09821769
:10254000930709F0B9C02091BE093091BF09B901C4
:102550006F5F7F4F7093BF096093BE09F90144918B
:102560004F3F79F5A9014E5F5F4F5093BF094093EC
:10257000BE09FB0164916F3219F4109208079CC0E8
:10258000663009F08CC0FA014491C9010496909319
:10259000BF098093BE09F9013396E491E33529F42C
:1025A0009093C1098093C0097AC0E53409F077C0DF
:1025B0008091C0099091C1099093BF098093BE0991
:1025C0006EC047FD4093B9099091B909892F8F706A
:1025D00047FF08C02E5F3F4F3093BF092093BE09CD
:1025E000FB014491907F903BE1F0903C09F451C095
:1025F000903909F054C0E091BE09F091BF099F01E4
:102600002F5F3F4F3093BF092093BE092491220FC3
:10261000F89EF0011124E75AF64F60890E94861453
:102620003EC0E091BE09F091BF099F012F5F3F4F6F
:102630003093BF092093BE09E491473049F4F89ED6
:10264000D0011124A75AB64FEE0F1C96EC9327C069
:102650004B3049F4F89ED0011124A75AB64FEE0F23
:102660001396EC931CC04C3549F4F89ED00111240C
:10267000A75AB64FEE0F1A96EC9311C0443679F470
:10268000F89ED0011124A75AB64FEE0F1B96EC937B
:1026900006C0F89EF0011124E75AF64F408B8EEBEE
:1026A00099E00E9412149093BC098093BB09109288
:1026B000B6091092B5093BCF01969093B609809365
:1026C000B509EE24EA94F12C888185FF37C02D8965
:1026D0003E89232B09F432C086FD30C09B898A894C
:1026E00098132AC0ED89FE89BF016F5F7F4F7E8BF3
:1026F0006D8B84918F3F31F488818F7788831E8A18
:102700001D8A1AC03296FE8BED8BFB016491E82F77
:10271000F0E0EE0FFF1FEE53FF4F25913491CE01F5
:10272000F9010995ED89FE89CF0101969E8B8D8B6C
:10273000E491EA8B1B8AD2CF9F5F9B8B988195FF98
:102740005EC08C898F3F11F08F5F8C8B97FD02C02C
:102750009C8501C09FEF8D854985882309F449C078
:102760006E85662309F445C0992309F442C050914F
:10277000BA09552309F43DC0899FC00111249395DE
:10278000892F9927689F9001699F300D11243395F7
:10279000232F33276B81629FC001639F900D11240B
:1027A0009395892F9927589F9001599F300D112497
:1027B0003395232F33278A858823E9F0E42FF0E02F
:1027C000E050F54DE491E0588E9FF0011124F3950F
:1027D000EF2FFF27B7016E1B7F0B629FC001639F26
:1027E000900D729F900D11249C013395232F332758
:1027F00002C020E030E08B85480F498702C020E00E
:1028000030E0F801208367960A5F1F4FF9E0C53B6F
:10281000DF0709F059CFDF91CF911F910F91FF9002
:10282000EF900895DC01ED91FC9111979F012F5FCE
:102830003F4F11963C932E93E491E7FD03C08E2FFA
:1028400090E00895EF778E2F90E09695982F882747
:10285000979587952F5F3F4FF9013197E4914E2F60
:102860004F77840F911DE7FDF0CF2D933C93089592
:102870000F931F93CF93DF93EC01162F8881082FBE
:1028800000781F869FEF9E874D871C8A877B8883F1
:102890001A86198629831C829B838A81833069F476
:1028A000011101C0122F81E091E090932F098093D4
:1028B0002E0981E080932D0907C0622F0E94C61463
:1028C00060E08A810E94DD14002311F0198B01C0A1
:1028D000188BE091B709F091B80989E0189FE00DD5
:1028E000F11D1124339685919491009719F41E8A55
:1028F0001D8A07C01B8AFC0124912A8B01969E8B9E
:102900008D8BDF91CF911F910F910895CF93DF931E
:10291000A82FB0E097E1899FF0011124E75AF64F04
:10292000808185FF02C087FD2EC0211118C097E16C
:102930009A9FF0019B9FF00D1124E75AF64F97855F
:10294000911102C086FF158697E19A9FF0019B9F27
:10295000F00D1124E75AF64F8F7B808314C0822F2D
:10296000242F97E19A9FE0019B9FD00D1124C75A15
:10297000D64F18821E8A1D8A482FCE010E94381415
:10298000888180628883DF91CF9108959927772786
:10299000833008F00895E4EFF9E2660F771FE60F41
:1029A000F71FA591B491EAE1F9E026E0289FE00D38
:1029B000F11DA183B2831124089599277727EAE1B5
:1029C000F9E026E0289FE00DF11D6E3F31F46091A3
:1029D0002D096E7F60932D090BC06F3F31F460911C
:1029E0002D096E6F60932D0903C07BE2760F75830E
:1029F0001124089522002400260028002B002D0019
:102A000030003300360039003D00400044004800EB
:102A10004C00510056005B00600066006C007300C3
:102A200079008100880090009900A200AC00B600F7
:102A3000C100CC00D800E500F30001011001210124
:102A40003201440157016C0181019801B001CA01B2
:102A5000E50102022102410264028802AE02D702AD
:102A60000303300361039403CB030504420483048E
:102A7000C70410055D05AF0505066106C2062907F6
:102A800096070908830805098E09200ABA0A5D0B12
:102A90000A0CC10C840D510E2B0F121007110A12D3
:102AA0001D1340147415BA1614188319071BA31CA0
:102AB000571E24200E22142439267F28E82A752D3B
:102AC000293006330F364539AD3C49401B44284870
:102AD000734CFE50CF55EA5A51600C661D6C8B72D8
:102AE0005A79928037885090E598FDA19FABD3B575
:102AF000A3C0000000000000000000000000000073
:102B0000000306090C101316191C1F2225282B2E52
:102B1000313336393C3F414447494C4E5153555867
:102B20005A5C5E60626466686A6B6D6F7071737424
:102B3000757678797A7A7B7C7D7D7E7E7E7F7F7FDD
:102B40007F7F7F7F7E7E7E7D7D7C7B7A7A797876C3
:102B500075747371706F6D6B6A68666462605E5CD9
:102B60005A585553514E4C494744413F3C393633EE
:102B7000312E2B2825221F1C191613100C090603B1
:102B800000FDFAF7F4F0EDEAE7E4E1DEDBD8D5D2B8
:102B9000CFCDCAC7C4C1BFBCB9B7B4B2AFADABA883
:102BA000A6A4A2A09E9C9A9896959391908F8D8CA6
:102BB0008B8A8887868685848383828282818181CD
:102BC0008181818182828283838485868687888AC7
:102BD0008B8C8D8F9091939596989A9C9EA0A2A491
:102BE000A6A8ABADAFB2B4B7B9BCBFC1C4C7CACD5C
:102BF000CFD2D5D8DBDEE1E4E7EAEDF0F4F7FAFD79
:102C0000808182838485868788898A8B8C8D8E8F4C
:102C1000909192939495969798999A9B9C9D9E9F3C
:102C2000A0A1A2A3A4A5A6A7A8A9AAABACADAEAF2C
:102C3000B0B1B2B3B4B5B6B7B8B9BABBBCBDBEBF1C
:102C4000C0C1C2C3C4C5C6C7C8C9CACBCCCDCECF0C
:102C5000D0D1D2D3D4D5D6D7D8D9DADBDCDDDEDFFC
:102C6000E0E1E2E3E4E5E6E7E8E9EAEBECEDEEEFEC
:102C7000F0F1F2F3F4F5F6F7F8F9FAFBFCFDFEFFDC
:102C8000000102030405060708090A0B0C0D0E0FCC
:102C9000101112131415161718191A1B1C1D1E1FBC
:102CA000202122232425262728292A2B2C2D2E2FAC
:102CB000303132333435363738393A3B3C3D3E3F9C
:102CC000404142434445464748494A4B4C4D4E4F8C
:102CD000505152535455565758595A5B5C5D5E5F7C
:102CE000606162636465666768696A6B6C6D6E6F6C
:102CF000707172737475767778797A7B7C7D7E7F5C
:102D000000020406080A0C0E10121416181A1C1ED3
:102D100020222426282A2C2E30323436383A3C3EC3
:102D200040424446484A4C4E50525456585A5C5EB3
:102D300060626466686A6C6E70727476787A7C7EA3
:102D40007F7D7B79777573716F6D6B696765636183
:102D50005F5D5B59575553514F4D4B494745434173
:102D60003F3D3B39373533312F2D2B292725232163
:102D70001F1D1B19171513110F0D0B090705030153
:102D8000FFFDFBF9F7F5F3F1EFEDEBE9E7E5E3E143
:102D9000DFDDDBD9D7D5D3D1CFCDCBC9C7C5C3C133
:102DA000BFBDBBB9B7B5B3B1AFADABA9A7A5A3A123
:102DB0009F9D9B99979593918F8D8B898785838113
:102DC00080828486888A8C8E90929496989A9C9E13
:102DD000A0A2A4A6A8AAACAEB0B2B4B6B8BABCBE03
:102DE000C0C2C4C6C8CACCCED0D2D4D6D8DADCDEF3
:102DF000E0E2E4E6E8EAECEEF0F2F4F6F8FAFCFEE3
:102E00007F7F7F7F7F7F7F7F7F7F7F7F7F7F7F7FD2
:102E10007F7F7F7F7F7F7F7F7F7F7F7F7F7F7F7FC2
:102E20007F7F7F7F7F7F7F7F7F7F7F7F7F7F7F7FB2
:102E30007F7F7F7F7F7F7F7F7F7F7F7F7F7F7F7FA2
:103100000309131E28313A40464C5054585B5E6107
:10311000636567696B6C6E6F7071727374757677C7
:10312000777879797A7A7B7B7C7C7C7D7D7D7E7EED
:103130007E7E7F7F7F7F7F7F7F7F7F7F7F7F7F7FA1
:103140007F7F7F7F7F7F7F7F7F7F7F7F7F7E7E7E92
:103150007E7D7D7D7C7C7C7B7B7A7A7979787777C4
:10316000767574737271706F6E6C6B69676563618D
:103170005E5B5854504C46403A31281E13090300F8
:10318000C6CCD5DBDFE3E5E7E9EAEBECEDEEEFEF0C
:10319000F0F0F0F1F1F1F1F2F2F2F2F2F2F2F2F318
:1031A000F3F3F3F3F3F3F3F3F3F3F3F3F3F3F3F3EF
:1031B000F3F3F3F3F3F3F3F3F3F3F3F3F3F3F3F3DF
:1031C000F3F3F3F3F3F3F3F3F3F3F3F3F3F3F3F3CF
:1031D000F3F3F3F3F3F3F3F3F3F3F3F3F3F3F3F3BF
:1031E000F2F2F2F2F2F2F2F2F1F1F1F1F0F0F0EFCC
:1031F000EFEEEDECEBEAE9E7E5E3DFDBD5CCC6008B
:1032000000283D42302D2C2B2C2D2E2F30323335E3
:1032100037393B3D3F414345484A4C4E5053555743
:10322000595B5D5F61636567696B6C6E7071737428
:10323000757778797A7B7C7D7D7E7E7F7F7F7F7FCF
:103240007F7F7F7F7F7F7E7E7D7D7C7B7A797877B5
:1032500075747371706E6C6B69676563615F5D5BDC
:1032600059575553504E4C4A484543413F3D3B39D1
:1032700037353332302F2E2D2C2B2C2D30423D283C
:1032800000E9E5FED4D7D7D7D6D4D2D0CECCCAC8A1
:10329000C6C3C1BFBDBAB8B6B4B1AFADABA9A7A5DF
:1032A000A3A19F9E9C9A999795949391908F8D8CB2
:1032B0008B8A8988888786858584848483838383B1
:1032C0008383838383848484858586878888898AA9
:1032D0008B8C8D8F909193949597999A9C9E9FA19A
:1032E000A3A5A7A9ABADAFB1B4B6B8BABDBFC1C3B2
:1032F000C6C8CACCCED0D2D4D6D7D7D7D4FEE5E96B
:10330000F9F8F9F5EBE1DDDEE0E2E4E5E6E5E4E23B
:10331000DED9D2CAC1B7ACA299918A868381808056
:103320008182838586888A8C8D8F909293959697DB
:1033300098999A9B9B9C9D9D9D9E9E9E9F9F9F9FC3
:103340009F9F9F9E9E9E9D9D9D9C9B9B9A999897BB
:1033500096959392908F8D8C8A88868583828180C2
:10336000808183868A9199A2ACB7C1CAD2D9DEE2A4
:10337000E4E5E6E5E4E2E0DEDDE1EBF5F9F8F900AD
:103380000708070B151F2322201E1C1B1A1B1C1EBF
:1033900022272E363F49545E676F767A7E7F7F7F85
:1033A0007F7E7D7B7A7876747371706E6D6B6A69DF
:1033B00068676665656464636362626261616161D6
:1033C00061616162626263636364656566676869BF
:1033D0006A6B6D6E7071737476787A7B7D7E7F7F99
:1033E0007F7F7E7A766F675E54493F362E27221E96
:1033F0001C1B1A1B1C1E2022231F150B070807006D
:103400001F313D444E5354565A5F64696E74767949
:103410007C7F7F7F7F7F7F7F7F7F7F7F7F7F7F7FBF
:103420007F7F7F7F7F7F7F7F7F7F7F7F7F7F7F7FAC
:103430007F7F7F7F7F7F7F7F7F7F7F7F7F7F7F7F9C
:103440007F7F7F7F7F7F7F7F7F7F7F7F7F7F7F7F8C
:103450007F7F7F7F7F7F7F7F7F7F7F7F7F7F7F7F7C
:103460007F7F7F7F7F7F7F7F7F7F7F7F7F7F7F7F6C
:103470007F7F7F7F7F7F7F7F7F7F7F7C7871684CBE
:103480002C1C120C0A0B0A05FDF3E9DFD4CAC0B7E5
:10349000AEA69E97918B868582808080808080807A
:1034A000808080808080808080808080808080801C
:1034B000808080808080808080808080808080800C
:1034C00080808080808080808080808080808080FC
:1034D00080808080808080808080808080808080EC
:1034E00080808080808080808080808080808080DC
:1034F000808080808087919DACC4CBD4DDF2FAFAC5
:10350000089508950C94FA1ACF92DF92EF92FF92E9
:103510000F931F93CF93DF93C82ED62F8A01D22EFD
:10352000C0E08AE0E82EF12C2C2D2C1B0115110592
:1035300011F4C11107C0C801B7010E949B1F40E1EF
:10354000480F05C0DD2011F040E101C040E06D2FC3
:10355000822F0E94BC10C801B7010E949B1F8B01E3
:10356000CF5FC53009F7DF91CF911F910F91FF9089
:10357000EF90DF90CF900895DF92EF92FF920F933C
:103580001F93CF93DF937C01D62E8A01EC01FE01BD
:10359000EE19FF09E00FF11FE491EE2349F0EF77F8
:1035A00040EE4E0F6D2D8C2F0E94BC102196EFCF58
:1035B000DF91CF911F910F91FF90EF90DF900895D1
:1035C00040520C94BC100F931F93CF93DF938C0148
:1035D000C0E0D0E0C017D10744F40E94D91088237E
:1035E000E1F30E94DD102196F5CFDF91CF911F917D
:1035F0000F9108958091C509882301F18091C60932
:10360000811119C08091C3098093C609E091C7094F
:10361000F0E0E152FF4FE491E7B99091C709809142
:10362000C409890F8093C709882311F08D3031F4C4
:103630001092C509089581508093C6090895860F98
:1036400099270895860F99270895860F9927089539
:10365000860F992708958CEE90E00E94D4100E9466
:10366000561B81E090E00E94E31A80E00E94E31084
:1036700090934F0980934E09209154093091550938
:10368000A9014095509548235923509351094093DF
:1036900050098095909582239323909353098093AA
:1036A00052090E94AD1B0E94081EDBCF0F931F938F
:1036B000CF93DF930E94312008E210E0B8010E940E
:1036C000AF1F90933309809332090E943120C2E1E9
:1036D000D0E0BE010E94AF1F90933509809334095A
:1036E00010923909109238090E943120BE010E94BF
:1036F000AF1F90933709809336090E943120BE0195
:103700000E94AF1F90934109809340090E9431208D
:10371000B8010E94AF1F90933F0980933E09109219
:103720003B0910923A090E943120BE010E94AF1F4E
:1037300090933D0980933C098FE090E0909343097A
:10374000809342098AE090E0909345098093440970
:10375000DF91CF911F910F910895AF92BF92CF92B9
:10376000DF92EF92FF920F931F93CF93DF9380919D
:10377000160190911701181619060CF03EC280919F
:1037800050099091510980329105D1F04CF482306A
:10379000910519F180319105C1F0019721F510C013
:1037A00080389105D1F024F48034910589F01BC054
:1037B000811521E0920749F08115924049F013C02C
:1037C00061E070E080E090E00CC06FEF7FEFFACF37
:1037D00060E070E08FEF9FEF04C060E070E081E098
:1037E00090E00E94F91E80914E0990914F099093AC
:1037F00055098093540920914609309147092F5F5C
:103800003F4F3093470920934609809114019091CE
:103810001501821793070CF040C020913E093091AA
:103820003F0940913209509133092417350734F488
:103830002F5F3F4F30933F0920933E0920913E096F
:1038400030913F094217530734F421503109309326
:103850003F0920933E092091400930914109409150
:103860003409509135092417350734F42F5F3F4F41
:10387000309341092093400920914009309141093A
:103880004217530734F421503109309341092093F2
:103890004009109247091092460920914809309139
:1038A0004909243031052CF0181619066CF40197DB
:1038B00007C0232B49F41816190634F08CE291E066
:1038C00090931501809314018091380990913909E2
:1038D0000196909339098093380920913A093091E3
:1038E0003B092F5F3F4F30933B0920933A094091AA
:1038F00006015091070122E130E0241B350B8217AD
:103900009307ACF08091040190910501C8E2D0E0EA
:10391000C81BD90B0E943120BE010E94AF1F90939B
:10392000370980933609109239091092380920918D
:1039300008013091090188E290E0821B930B2091ED
:103940003A0930913B0928173907ACF080910A01F8
:1039500090910B01CDE0D0E0C81BD90B0E94312023
:10396000BE010E94AF1F90933D0980933C091092C5
:103970003B0910923A09A0900A01B0900B01C09047
:103980000801D0900901E0903C09F0903D090091B8
:103990003A0910913B0920910201309103014091B5
:1039A00000015091010160913409709135098091B5
:1039B0003209909133090E94D21E882369F16FEF7A
:1039C0007FEF80911601909117010E941F1B909329
:1039D00017018093160161E070E080914A0990918F
:1039E0004B090E94251B90934B0980934A098091B3
:1039F0000A0190910B01C2E1D0E0C81BD90B0E94D3
:103A00003120BE010E94AF1F90933D0980933C0975
:103A100010923B0910923A09A0900601B09007015C
:103A2000C0900401D0900501E0903809F090390968
:103A3000009136091091370920910201309103015C
:103A40004091000150910101609134097091350954
:103A500080913209909133090E94D21E882309F186
:103A600061E070E080914809909149090E94221B11
:103A70009093490980934809809104019091050130
:103A8000C8E2D0E0C81BD90B0E943120BE010E94C1
:103A9000AF1F90933709809336091092390910921D
:103AA0003809A0901201B0901301C0901001D0907D
:103AB0001101E0904409F0904509009142091091EC
:103AC000430920910201309103014091000150917E
:103AD000010160913409709135098091320990910A
:103AE00033090E94D21E882361F161E070E0809169
:103AF0004C0990914D090E94281B90934D09809389
:103B00004C0961E070E080911601909117010E94CC
:103B10001F1B90931701809316010E94312062E1D0
:103B200070E00E94AF1F90934509809344090E9462
:103B3000312068E270E00E94AF1F909343098093A8
:103B40004209A0900E01B0900F01C0900C01D090DE
:103B50000D01E0904009F090410900913E0910915B
:103B60003F092091020130910301409100015091E1
:103B70000101609134097091350980913209909169
:103B800033090E94D21E8823C1F16FEF7FEF80912D
:103B90004809909149090E94221B909349098093FA
:103BA00048096FEF7FEF80911601909117010E94F5
:103BB0001F1B9093170180931601809148099091E3
:103BC00049091816190624F010924909109248095B
:103BD00080910C0190910D01C8E2D0E0C81BD90B77
:103BE0000E943120BE010E94AF1F90933F09809335
:103BF0003E091092410910924009DF91CF911F9127
:103C00000F91FF90EF90DF90CF90BF90AF9008950D
:103C10000F938091160190911701181619060CF058
:103C2000ADC00E94AE1044EA5BE160E070E081E06C
:103C300090E00E94BC1A409148095091490920E047
:103C400060E070E08AE090E00E94841A4AEA5BE15A
:103C500060E070E08FE090E00E94BC1A4091160195
:103C60005091170120E060E070E08AE190E00E944E
:103C7000841A41EB5BE161E170E081E090E00E9439
:103C8000BC1A40914A0950914B0920E061E170E073
:103C900088E190E00E94841A45EC5BE161E170E00C
:103CA0008AE190E00E94BC1A40914C0950914D0964
:103CB00020E061E170E084E290E00E94841A2091AB
:103CC0000201309103014091000150910101609186
:103CD00034097091350900E38091320990913309DC
:103CE0000E94311F2091060130910701409104018B
:103CF00050910501609138097091390904E2809171
:103D00003609909137090E94311F20910E013091A0
:103D10000F0140910C0150910D016091400970918B
:103D2000410908E580913E0990913F090E94311FA9
:103D300020910A0130910B01409108015091090135
:103D400060913C0970913D090DE280913A09909192
:103D50003B090E94311F20911201309113014091C3
:103D6000100150911101609144097091450905E5D8
:103D700080914209909143090E94311F8091160160
:103D800090911701181619065CF00E94AE104CECC9
:103D90005BE169E070E08EE090E00F910C94BC1A5A
:103DA0000F910895AF92BF92CF92DF92EF92FF9260
:103DB0000F931F93480F591F4017510784F0260F88
:103DC000371F2E153F055CF0C00ED11EC816D90650
:103DD00034F0AE0CBF1C81E0A616B7060CF480E0F0
:103DE0001F910F91FF90EF90DF90CF90BF90AF9019
:103DF00008950F931F93CF93DF9300913209109191
:103E000033099801280F391F309333092093320961
:103E1000C0913409D0913509FE01E60FF71FF093E8
:103E20003509E093340937FD0FC0609100017091AE
:103E3000010186E090E00E94AF1F260F371F283255
:103E4000310514F4709740F0109333090093320950
:103E5000D0933509C0933409DF91CF911F910F9111
:103E600008955F926F927F928F929F92AF92BF92CE
:103E7000CF92DF92EF92FF920F931F93CF93DF9336
:103E8000883291050CF047C0623171050CF043C0D7
:103E9000502E4901EA017B018C013C016B01C20EED
:103EA000D31E560181E0A81AB108C301801B910BF3
:103EB0008C179D07B4F488E2681671042CF4452D24
:103EC000B701C3010E94E01A83E1C816D1042CF4A3
:103ED000452DB501C3010E94E01A8FEF681A780AD8
:103EE000E4CFCC24C394D12CC00FD11F2197C81488
:103EF000D9048CF45701AC0CBD1C452DB501C8018B
:103F00000E94E01A452DB501CE010E94E01A8FEF04
:103F1000C81AD80AECCFDF91CF911F910F91FF9073
:103F2000EF90DF90CF90BF90AF909F908F907F9059
:103F30006F905F900895AA1BBB1B51E107C0AA1F99
:103F4000BB1FA617B70710F0A61BB70B881F991F3A
:103F50005A95A9F780959095BC01CD01089597FBDE
:103F6000072E16F4009407D077FD09D00E949B1FFE
:103F700007FC05D03EF4909581959F4F089570956C
:103F800061957F4F0895A1E21A2EAA1BBB1BFD016C
:103F90000DC0AA1FBB1FEE1FFF1FA217B307E40728
:103FA000F50720F0A21BB30BE40BF50B661F771F80
:103FB000881F991F1A9469F7609570958095909560
:103FC0009B01AC01BD01CF0108958F929F92AF92EA
:103FD000BF92CF92DF92EF92FF92CF93DF93EC01EB
:103FE000688179818A819B816115710581059105BF
:103FF00021F464E279ED8BE597E02DE133EF41E0C8
:1040000050E00E94412049015A019B01AC01A7EAFE
:10401000B1E40E9460206B017C01ACEEB4EFA5011D
:1040200094010E946E20DC01CB018C0D9D1DAE1D04
:10403000BF1DB7FF03C00197A109B04888839983CA
:10404000AA83BB839F77DF91CF91FF90EF90DF90A2
:10405000CF90BF90AF909F908F9008950E94E51FE2
:10406000089588E191E00E94E51F0895A0E0B0E086
:104070008093180190931901A0931A01B0931B012A
:104080000895052E97FB1EF400940E94582057FDBA
:1040900007D00E94C31F07FC03D04EF40C94582095
:1040A00050954095309521953F4F4F4F5F4F089564
:1040B00090958095709561957F4F8F4F9F4F089594
:1040C0000E947320A59F900DB49F900DA49F800D1A
:1040D000911D11240895B7FF0C9460200E94602068
:1040E000821B930B0895A29FB001B39FC001A39FB1
:1040F000700D811D1124911DB29F700D811D112421
:08410000911D0895F894FFCF12
:104108000200020003000200050001000300020093
:0C411800010001002C0164000100000007
:00000001FF
